:100000000C9462000C948A000C948A000C948A0070
:100010000C948A000C948A000C948A000C948A0038
:100020000C948A000C948A000C948A000C948A0028
:100030000C948A000C948A000C948A000C948A0018
:100040000C949E060C948A000C948A000C948A00EE
:100050000C948A000C948A000C948A000C948A00F8
:100060000C947F050C948A000000000024002700F7
:100070002A0000000000250028002B0000000000DE
:1000800023002600290004040404040404040202DA
:100090000202020203030303030301020408102007
:1000A0004080010204081020010204081020000012
:1000B0000008000201000003040700000000000027
:1000C0000000E80611241FBECFEFD8E0DEBFCDBF91
:1000D00012E0A0E0B1E0E6E0F6E102C005900D928A
:1000E000A230B107D9F723E0A2E0B2E001C01D922F
:1000F000AB38B207E1F710E0C2E6D0E004C02197C8
:10010000FE010E94F20AC136D107C9F70E94980782
:100110000C94010B0C94000096E0899FD0011124EF
:10012000A252BD4F90967C936E935F9791E091960B
:100130009C939197E0914B03F0914C0390914A036B
:10014000992339F0309751F0811108C08091FA025B
:100150000994309719F05C968C91FACF089520910C
:100160008602260F3327331F21323105ECF420910C
:10017000AC02FC0190E080E0243069F082E0089558
:10018000A09186022191AC014C595D4FA40FB52F6F
:10019000B11D2C930196861798F380918602680F03
:1001A0006093860280E0089581E00895089508959F
:1001B0000895E0915B0280915A02E81730F4F0E074
:1001C000E65CFD4F808190E008958FEF9FEF0895EA
:1001D00090915B0280915A022FEF3FEF981748F4FD
:1001E000E92FF0E0E65CFD4F208130E09F5F9093C7
:1001F0005B02C901089580915A0290915B02891BAC
:10020000990B0895CF92DF92EF92FF920F931F9375
:10021000CF93DF937C01CB018A0120913902222305
:1002200089F0EB016B01C40ED51ECC15DD0569F01C
:100230006991D701ED91FC910190F081E02DC7010A
:100240000995F3CF642F0E94AF00C801DF91CF91D1
:100250001F910F91FF90EF90DF90CF900895CF9373
:10026000DF931F92CDB7DEB7698320913902222335
:10027000F9F020915C02203258F021E030E0FC01DE
:100280003383228390E080E00F90DF91CF91089537
:1002900080915D02E82FF0E0E75EFD4F9981908349
:1002A0008F5F80935D0280935C0281E090E0ECCFF1
:1002B00061E0CE0101960E94AF00F7CF833081F05C
:1002C00028F4813099F08230A9F008958730A9F0A0
:1002D0008830C9F08430B1F4809180008F7D03C0F4
:1002E000809180008F7780938000089584B58F7708
:1002F00084BD089584B58F7DFBCF8091B0008F774A
:100300008093B00008958091B0008F7DF9CFCF9396
:10031000DF93282F30E0F901E255FF4F8491F90176
:10032000E656FF4FD491F901EA57FF4FC491CC2311
:10033000A1F081110E945E01EC2FF0E0EE0FFF1F93
:10034000E458FF4FA591B491EC91ED2381E090E04A
:1003500009F480E0DF91CF91089580E090E0FACF3A
:100360001F93CF93DF93282F30E0F901E255FF4F21
:100370008491F901E656FF4FD491F901EA57FF4FF6
:10038000C491CC23A9F0162F81110E945E01EC2F9D
:10039000F0E0EE0FFF1FEE58FF4FA591B4918FB71D
:1003A000F894EC91111108C0D095DE23DC938FBF37
:1003B000DF91CF911F910895DE2BF8CF1092AC0200
:1003C00081E08093AE021092AD0261E082E10E9472
:1003D000B00161E083E10E94B001E9EBF0E08081CF
:1003E0008E7F808380818D7F808388E48093B800B6
:1003F00085E48093BC000895CF93DF9391E09093C0
:1004000063028823B9F0C091B800D091BA008091FE
:10041000BC008A7B8093BC0060E082E10E94B00156
:1004200060E083E10E94B0010E94DE01D093BA0037
:10043000C093B800DF91CF910895CF93DF9390E000
:10044000FC01E656FF4F24918A579F4FFC0184918F
:100450008823C9F090E0880F991FFC01E859FF4FED
:10046000A591B491FC01EE58FF4FC591D491611153
:100470000DC09FB7F8948C91209582238C9388812E
:10048000282328839FBFDF91CF910895623051F4D4
:100490009FB7F8943C91822F809583238C93E881B9
:1004A0002E2BEFCF8FB7F894EC912E2B2C938FBF80
:1004B000EACF3FB7F8948091150290911602A0916F
:1004C0001702B091180226B5A89B05C02F3F19F05E
:1004D0000196A11DB11D3FBFBA2FA92F982F8827C4
:1004E000BC01CD01620F711D811D911D42E0660F9F
:1004F000771F881F991F4A95D1F708958F929F9271
:10050000AF92BF92CF92DF92EF92FF924B015C01CC
:100510000E9459026B017C010E9459026C197D09ED
:100520008E099F09683E734081059105A8F321E07B
:10053000821A9108A108B10888EEC80E83E0D81E7F
:10054000E11CF11C81149104A104B10429F7FF906E
:10055000EF90DF90CF90BF90AF909F908F900895D5
:100560002FB7F894609111027091120280911302DA
:10057000909114022FBF08950F931F93CF93DF9391
:10058000C82FD62F86E0C89FF0011124E252FD4FFC
:1005900011A2878D90A181309105F1F058F0823041
:1005A0009105F1F1039709F440C0DF91CF911F91BC
:1005B0000F9108956623C9F361E070E08C2F0E94CB
:1005C0008C000E94B00260933603709337038093CF
:1005D000380390933903E9CF0E94B00200913603AB
:1005E000109137032091380330913903AB01BC01DE
:1005F000401B510B620B730B809148039091490390
:10060000B0E0A0E084179507A607B70748F462E0BA
:1006100070E08C2FDF91CF911F910F910C948C0083
:1006200063E070E0D111C1CFF4CF70E060E0F1CFB2
:10063000862F642F0C941D02862F642F0C94B0011A
:10064000862F0C948701AF92BF92CF92DF92EF92E8
:10065000FF920F931F93CF93DF936C017B018B016C
:10066000040F151FEB015E01AE18BF08C017D107BC
:1006700059F06991D601ED91FC910190F081E02D46
:10068000C6010995892B79F7C501DF91CF911F919B
:100690000F91FF90EF90DF90CF90BF90AF900895B3
:1006A000CF92DF92EF92FF920F931F93CF93DF933E
:1006B000FC01C48121E020933902C0930202109210
:1006C0005D0210925C028385682B82ED92E00E94AD
:1006D0002F01D0915C02D13208F092C00E945902E1
:1006E0006B017C018091AC02811165C082E0809336
:1006F000AC0281E08093AE028FEF8093AB02109248
:10070000D002D093CF02A9E1B2E0EFEAF2E080E0BC
:10071000D81385C01092D1028091D102CC0FC82B82
:10072000C093D1028091AD02813009F07CC010925B
:10073000AD020E9459026B017C018091D10280932D
:10074000BB0080915F0290916002A0916102B09124
:100750006202892B8A2B8B2B99F00E9459020091FF
:100760005F021091600220916102309162026C1967
:100770007D098E099F090617170728073907E0F139
:100780008091BC0083FDD9CF85EC8093BC000E9492
:1007900059026B017C018091AC02823009F445C0A2
:1007A0008091AB028F3F61F18091AB02803241F1C9
:1007B0008091AB0225C080915F0290916002A09170
:1007C0006102B0916202892B8A2B8B2B09F48ACFAC
:1007D0000E94590200915F02109160022091610213
:1007E000309162026C197D098E099F09061717075F
:1007F0002807390708F076CF80915E020E94FC013D
:1008000010925D0210925C0210923902DF91CF913A
:100810001F910F91FF90EF90DF90CF9008959D91E1
:1008200091938F5F75CF85EEB0CF80915F029091ED
:100830006002A0916102B0916202892B8A2B8B2BFE
:1008400009F4A9CF0E94590200915F021091600241
:1008500020916102309162026C197D098E099F0915
:10086000061717072807390708F095CFC5CF089551
:1008700090E080E00895FC0101900020E9F73197B5
:10088000AF01481B590BBC018DE493E00C9423038A
:1008900085ED8093BC0080915F0290916002A091F1
:1008A0006102B09162020796A11DB11D23E0B695C9
:1008B000A795979587952A95D1F72091BC0024FD9F
:1008C00003C01092AC02089540915F025091600203
:1008D0006091610270916202452B462B472B69F3B0
:1008E0000097A105B10541F02AE22A95F1F700C071
:1008F0000197A109B109E1CF80915E020C94FC013E
:100900000F931F93CF938C01C62F0E9450036C2F1F
:100910006460C8010E9450036C2F6B7FC8010E9465
:10092000500383EC90E00197F1F7CF911F910F9165
:1009300008950F931F93CF93DF938C01D62FC42F6D
:10094000607F642B0E94800480E1D89FB001112455
:100950006C2BC801DF91CF911F910F910C948004F3
:10096000CF93DF93CDB7DEB728970FB6F894DEBFED
:100970000FBECDBF98E0E8E1F1E0DE0111960190F5
:100980000D929A95E1F790915503961710F46FEF39
:10099000690F262F30E0220F331F41E050E04C0F4B
:1009A0005D1F240F351FF9016081680F606840E00A
:1009B0008DE493E028960FB6F894DEBF0FBECDBF4E
:1009C000DF91CF910C94990440E061E08DE493E0D5
:1009D0000E9499048BE39FE10197F1F708950E942B
:1009E000E40460E084E00E94B0048FE791E00E949C
:1009F0003B0461E081E00E94B0048CE891E00E9439
:100A00003B0462E087E00E94B0048FE991E00E941D
:100A10003B0463E081E00E94B00484EA91E00E941C
:100A20003B0410920A0210920B020895FC01633CF1
:100A300079F0663B09F440C0862F8F7D8C39D1F167
:100A40006639D1F18738D1F1643C29F481E084879B
:100A500081E090E00895653C19F481E08587F8CF46
:100A60006E3981F48485882339F0148661E041E091
:100A7000CF010E949904ECCF8585882349F3158620
:100A800062E0F5CF6F3931F484858823A9F31486A9
:100A900063E0EDCF603B31F484858823C9F214868E
:100AA00064E0E5CF613B19F78485882389F21486D9
:100AB00065E0DDCF65EFDBCF6FEED9CF60E0D7CF5C
:100AC0000F931F93CF93DF938B0198E0899FB00121
:100AD0001124606440E08DE493E00E949904E801F1
:100AE000085F1F4F69918DE493E00E941605C017BF
:100AF000D107C1F7DF91CF911F910F9108951F92F8
:100B00000F920FB60F9211242F933F934F935F9341
:100B10006F937F938F939F93AF93BF93EF93FF93C5
:100B20008091B900887F803609F44AC0F0F5883298
:100B300009F4A7C018F5803109F49BC0B8F48823E4
:100B400009F4F9C0883009F494C0FF91EF91BF9186
:100B5000AF919F918F917F916F915F914F913F9155
:100B60002F910F900FBE0F901F901895883109F4A8
:100B700088C0803251F78093AB0214C0803409F4EE
:100B80009DC040F48033B9F38833F9F68093AB020B
:100B900085ECB0C0803509F485C0883509F496C06D
:100BA000883499F60E944804D0CF883909F48CC063
:100BB00038F5883729F050F4883611F0803729F657
:100BC00083E08093AC021092AA0257C0883809F4DF
:100BD0007BC0803919F0803809F0B7CF8091AA0224
:100BE000803208F071C0E091AA0281E08E0F8093FC
:100BF000AA028091BB00F0E0E657FD4F80833DC024
:100C0000803B39F0E0F4803A09F479C0883A09F081
:100C10009CCF84E08093AC021092870210928602EF
:100C2000E0918402F09185020995809186028111FC
:100C30000FC081E0809386021092640209C0803C5C
:100C400009F4A6CF883C09F4A3CF883B09F07DCFF7
:100C5000E091870281E08E0F80938702F0E0EC59EB
:100C6000FD4F80818093BB00909187028091860226
:100C700029C08091D1028093BB0085EC8093BC0099
:100C800064CF9091D0028091CF02981758F5E091EF
:100C9000D00281E08E0F8093D002F0E0E155FD4F4D
:100CA0008081E9CFE091D00281E08E0F8093D00265
:100CB0008091BB00F0E0E155FD4F80839091D00220
:100CC0008091CF029817C8F285E8D8CFE091D00282
:100CD00081E08E0F8093D0028091BB00F0E0E1555F
:100CE000FD4F80838091AE0281115CCF81E08093C3
:100CF000AD0284EA8093BC001092AC0226CF85EC52
:100D00008093BC001092AC028091AA02803230F431
:100D1000E091AA02F0E0E657FD4F10826091AA022E
:100D200070E0E0918802F09189028AE892E00995EA
:100D30001092AA020ACF1092AB0234CF1F920F92E8
:100D40000FB60F9211242F933F938F939F93AF93DE
:100D5000BF938091110290911202A0911302B09161
:100D600014023091100223E0230F2D3758F501961D
:100D7000A11DB11D209310028093110290931202C5
:100D8000A0931302B0931402809115029091160261
:100D9000A0911702B09118020196A11DB11D809378
:100DA000150290931602A0931702B0931802BF91F8
:100DB000AF919F918F913F912F910F900FBE0F9008
:100DC0001F90189526E8230F0296A11DB11DD2CFC2
:100DD0001092D5021092D40288EE93E0A0E0B0E029
:100DE0008093D6029093D702A093D802B093D902F1
:100DF0008BE591E09093D3028093D202109250033E
:100E000010924F0387E791E090934E0380934D0338
:100E10001092590310925A0388E0E0E2F1E0ABE54A
:100E2000B3E001900D928A95E1F788E0E8E2F1E005
:100E3000A3E6B3E001900D928A95E1F788E0E0E344
:100E4000F1E0ABE6B3E001900D928A95E1F788E01E
:100E5000E8E3F1E0A3E7B3E001900D928A95E1F7B2
:100E600088E0E0E4F1E0ABE7B3E001900D928A9511
:100E7000E1F788E0E8E4F1E0A3E8B3E001900D9247
:100E80008A95E1F787E28093510384E180935603CA
:100E900084E080935703109258031092E00210925E
:100EA000E4021092E3021092E5028DE691E0909345
:100EB000DF028093DE02EAEFF2E0108214821382F6
:100EC0001582369683E0E633F807B9F784E091E0BF
:100ED000909341038093400380E091E0909343031B
:100EE0008093420384E0809344038093450388E029
:100EF00091E090933F0380933E038AE090E09093CB
:100F000047038093460384EF91E0909349038093D5
:100F1000480310924C0310924B0310923A03109224
:100F20003B0310923C0310923D0310924A03089534
:100F3000CF93DF93CDB7DEB7A1970FB6F894DEBF9E
:100F40000FBECDBF789484B5826084BD84B58160C6
:100F500084BD85B5826085BD85B5816085BD809184
:100F60006E00816080936E001092810080918100FC
:100F700082608093810080918100816080938100F4
:100F8000809180008160809380008091B1008460B6
:100F90008093B1008091B00081608093B000809117
:100FA0007A00846080937A0080917A0082608093D6
:100FB0007A0080917A00816080937A0080917A0033
:100FC000806880937A001092C10010925B021092A8
:100FD0005A0210925D0210925C020E94DE0186EDC0
:100FE00090E0909385028093840287ED90E0909347
:100FF00089028093880210925203809157038230B5
:1010000018F098E0909352038093550362E370E0E8
:1010100080E090E00E947E02609158038DE493E0AE
:101020000E94500368EE73E080E090E00E947E0230
:1010300060E38DE493E00E9480040BE416E4C801B1
:101040000197F1F760E38DE493E00E948004C8010A
:101050000197F1F760E38DE493E00E94800483E55B
:1010600092E00197F1F760E28DE493E00E94800442
:1010700060915203606240E08DE493E00E94990425
:1010800084E08093530340E06CE08DE493E00E94A1
:1010900099040E94E40482E08093540340E066E0F7
:1010A0008DE493E00E94990440E062E08DE493E0D7
:1010B0000E9499048BE39FE10197F1F76BE573E0E0
:1010C00080E00E94600563E673E081E00E946005B5
:1010D0006BE673E082E00E94600563E773E083E003
:1010E0000E9460056BE773E084E00E94600563E89E
:1010F00073E085E00E94600588E08093580360E01B
:101100008DE493E00E9450030E94EF040E94B0021D
:1011100060930C0270930D0280930E0290930F0265
:10112000412C512C3201439446E0242EBB24B3942D
:10113000B0924A030E94B00200913A0310913B031F
:1011400020913C0330913D03AB01BC01401B510B8E
:10115000620B730B8091460390914703B0E0A0E0CF
:1011600084179507A607B70708F076C110E08091AD
:101170004403181760F4E0914003F0914103E10F3C
:10118000F11D62E080810E941D021F5FF0CFA12C43
:1011900080914503A81608F061C0EA2CF12CE0917B
:1011A0004203F0914303EE0DFF1D61E080810E9438
:1011B0001D02E0914203F0914303EE0DFF1D60E03C
:1011C00080810E94B001D301C2010A2C04C0880FA3
:1011D000991FAA1FBB1F0A94D2F74C016C01C0943F
:1011E000D094312C80914403381608F5032D10E07B
:1011F000E0914003F0914103E00FF11F80810E94D4
:1012000087010C5F1F4F000F111FF801E252FD4FC5
:10121000892B41F480819181882999299183808348
:101220003394E0CF808191818C219D21F7CFE09193
:101230004203F0914303EE0DFF1D61E080810E94A7
:10124000B0018091420390914303E80EF91E60E0E3
:10125000F70180810E941D02A3949ACF9EEDE92E92
:1012600092E0F92E8701F801878D90A1892B31F446
:10127000148E2FEF3FEF368F258F11A20A5F1F4F7D
:1012800033E00A31130779F7D12C80914403D81643
:1012900008F052C0C12C8D2C912C880C991CA401F3
:1012A0004A515D4F4A0120914503C21608F042C0E1
:1012B000F401608171810C2C02C0769567950A94C7
:1012C000E2F7D29E900111242C0D311DEEEDF2E0DB
:1012D00080E0458D568D2417350709F45FC18F5F77
:1012E00036968A30B1F760FF23C0EEEDF2E090E071
:1012F00080E0448D411117C0E0913E03F0913F031F
:10130000E20FF31F4081289EF001299EF00D112469
:10131000E252FD4F448F368F258F10A2178E61E069
:101320000E94BC0205C0019636968A30910509F7E5
:10133000C394B9CFD394A9CFD12CF70181A1811146
:10134000D82EF6E0EF0EF11C0E151F05B1F70E9426
:10135000B00260933A0370933B0380933C039093F5
:101360003D0310910B02DD2009F476C08091FF024D
:10137000882309F471C08091FD029091FE020197CB
:1013800009F06AC00091FA02011169C080910B0254
:10139000882309F459C0C0900C02D0900D02E0904F
:1013A0000E02F0900F020E94B00220E1C20E27E26E
:1013B000D21EE11CF11CA7019601261B370B480B1E
:1013C000590BCA01B90128EE33E040E050E00E9419
:1013D000D00A69017A01C114D104E104F10409F4CD
:1013E000DAC063E082E10E94B0043AE0C316D1049F
:1013F000E104F10420F483EE91E00E943B0419A281
:101400008E010F5D1F4FC701B6012AE030E040E0BA
:1014100050E00E94D00A69017A01605DF801629390
:101420008F01C114D104E104F10469F7309761F030
:1014300001900020E9F73197AF01401B510BB80133
:101440008DE493E00E94230320E030E0232B09F495
:101450006FCE0E9400006ACE10924A0397CF0E947E
:10146000B00260930C0270930D0280930E02909371
:101470000F02111121C0033239F7B0920B020E9402
:10148000E40460E080E00E94B00489EB91E00E94F7
:101490003B0461E087E00E94B004B0920B028DEC47
:1014A00091E00E943B0463E080E00E94B00484ED80
:1014B00091E00E943B046ACF80910A020334A1F1BB
:1014C000043409F43FC0863008F065CF202F002E89
:1014D000000C330B205331092A30310508F05BCF63
:1014E000E82FF0E0ED5FFD4F008317E0180F61E09B
:1014F000812F0E94B004602F8DE493E00E941605B6
:101500006AEF70E080E090E00E947E0261E0812F4F
:101510000E94B00480E092E00E943B0480910A02A5
:101520008F5F80930A0232CF882309F434CF9FEF74
:10153000980F90930A0261E08A5F0E94B00482EDE6
:1015400091E0B7CF863009F026CF1092090260E50E
:1015500071E083E092E00E94F80A892B99F40E94DE
:10156000E40461E080E00E94B00485EE91E00E9416
:101570003B0460ED77E080E090E00E947E020E94F4
:10158000EF0404CF0E94E40461E080E00E94B00414
:1015900082EF91E0ECCF0E94EF0456CF6170C0CE95
:1015A000A1E21A2EAA1BBB1BFD010DC0AA1FBB1F67
:1015B000EE1FFF1FA217B307E407F50720F0A21BD9
:1015C000B30BE40BF50B661F771F881F991F1A9446
:1015D00069F760957095809590959B01AC01BD0170
:1015E000CF010895EE0FFF1F0590F491E02D0994AF
:1015F000FB01DC018D91019080190110D9F3990B49
:061600000895F894FFCFED
:1016060005040302090807063132334134353642F0
:10161600373839432A302344000040001400540070
:10162600000E111010110E040E000E111017110FDE
:1016360000000E100E010E040E000F11110F010E08
:1016460004000E040404040E00000C0404040E003E
:1016560031323334353600000000002F01020138E4
:1016660004D800FB00E800D9000000000018031CA5
:10167600032003000000001605230338043704483E
:101686006FC59F67656C64696E697A002320696C13
:101696006520C59F6966726520676972696E007606
:1016A600657961004B617274C4B16EC4B17AC4B11C
:1016B600206F6B7574756E2E00C59E696672656EB9
:1016C600697A6920476972696E697A3A005F5F5F75
:1016D6005F5F5F0053696C2D3E432C204F6E61792E
:1016E6002D3E442000536966726520646F677275EB
:1016F600210053696672652079616E6C69732100F9
:021706002A00B7
:00000001FF
