:100000000C9462000C948A000C948A000C948A0070
:100010000C948A000C948A000C948A000C948A0038
:100020000C948A000C948A000C948A000C948A0028
:100030000C948A000C948A000C948A000C948A0018
:100040000C9433060C948A000C948A000C948A0059
:100050000C948A000C948A000C948A000C948A00F8
:100060000C9414050C948A00000000002400270062
:100070002A0000000000250028002B0000000000DE
:1000800023002600290004040404040404040202DA
:100090000202020203030303030301020408102007
:1000A0004080010204081020010204081020000012
:1000B0000008000201000003040700000000000027
:1000C00000007D0611241FBECFEFD8E0DEBFCDBFFC
:1000D00011E0A0E0B1E0E4EEF4E102C005900D9281
:1000E000AE3BB107D9F723E0AEEBB1E001C01D9202
:1000F000A631B207E1F710E0C2E6D0E004C02197D4
:10010000FE010E94610AC136D107C9F70E94F506B7
:100110000C94700A0C94000096E0899FD001112481
:10012000A656BD4F90967C936E935F9791E0919603
:100130009C939197E0910703F09108039091060337
:10014000992339F0309751F0811108C08091B6029F
:100150000994309719F05C968C91FACF089520910C
:100160004202260F3327331F21323105ECF4209150
:100170006802FC0190E080E0243069F082E008959C
:10018000A09142022191AC01405E5D4FA40FB52FBA
:10019000B11D2C930196861798F380914202680F47
:1001A0006093420280E0089581E0089508950895E3
:1001B0000895E091170280911602E81730F4F0E0FC
:1001C000EA50FE4F808190E008958FEF9FEF0895F1
:1001D00090911702809116022FEF3FEF981748F485
:1001E000E92FF0E0EA50FE4F208130E09F5F9093CE
:1001F0001702C90108958091160290911702891B78
:10020000990B0895CF92DF92EF92FF920F931F9375
:10021000CF93DF937C01CB018A012091F50122234A
:1002200089F0EB016B01C40ED51ECC15DD0569F01C
:100230006991D701ED91FC910190F081E02DC7010A
:100240000995F3CF642F0E94AF00C801DF91CF91D1
:100250001F910F91FF90EF90DF90CF900895CF9373
:10026000DF931F92CDB7DEB769832091F50122237A
:10027000F9F020911802203258F021E030E0FC0122
:100280003383228390E080E00F90DF91CF91089537
:1002900080911902E82FF0E0EB52FE4F9981908394
:1002A0008F5F809319028093180281E090E0ECCF79
:1002B00061E0CE0101960E94AF00F7CF833081F05C
:1002C00028F4813099F08230A9F008958730A9F0A0
:1002D0008830C9F08430B1F4809180008F7D03C0F4
:1002E000809180008F7780938000089584B58F7708
:1002F00084BD089584B58F7DFBCF8091B0008F774A
:100300008093B00008958091B0008F7DF9CFCF9396
:10031000DF93282F30E0F901E255FF4F8491F90176
:10032000E656FF4FD491F901EA57FF4FC491CC2311
:10033000A1F081110E945E01EC2FF0E0EE0FFF1F93
:10034000E458FF4FA591B491EC91ED2381E090E04A
:1003500009F480E0DF91CF91089580E090E0FACF3A
:100360001F93CF93DF93282F30E0F901E255FF4F21
:100370008491F901E656FF4FD491F901EA57FF4FF6
:10038000C491CC23A9F0162F81110E945E01EC2F9D
:10039000F0E0EE0FFF1FEE58FF4FA591B4918FB71D
:1003A000F894EC91111108C0D095DE23DC938FBF37
:1003B000DF91CF911F910895DE2BF8CF1092680244
:1003C00081E080936A021092690261E082E10E94FA
:1003D000B00161E083E10E94B001E9EBF0E08081CF
:1003E0008E7F808380818D7F808388E48093B800B6
:1003F00085E48093BC000895CF93DF9391E09093C0
:100400001F028823B9F0C091B800D091BA00809142
:10041000BC008A7B8093BC0060E082E10E94B00156
:1004200060E083E10E94B0010E94DE01D093BA0037
:10043000C093B800DF91CF910895CF93DF9390E000
:10044000FC01E656FF4F24918A579F4FFC0184918F
:100450008823C9F090E0880F991FFC01E859FF4FED
:10046000A591B491FC01EE58FF4FC591D491611153
:100470000DC09FB7F8948C91209582238C9388812E
:10048000282328839FBFDF91CF910895623051F4D4
:100490009FB7F8943C91822F809583238C93E881B9
:1004A0002E2BEFCF8FB7F894EC912E2B2C938FBF80
:1004B000EACF3FB7F8948091D1019091D201A091F9
:1004C000D301B091D40126B5A89B05C02F3F19F0E8
:1004D0000196A11DB11D3FBFBA2FA92F982F8827C4
:1004E000BC01CD01620F711D811D911D42E0660F9F
:1004F000771F881F991F4A95D1F708958F929F9271
:10050000AF92BF92CF92DF92EF92FF924B015C01CC
:100510000E9459026B017C010E9459026C197D09ED
:100520008E099F09683E734081059105A8F321E07B
:10053000821A9108A108B10888EEC80E83E0D81E7F
:10054000E11CF11C81149104A104B10429F7FF906E
:10055000EF90DF90CF90BF90AF909F908F900895D5
:100560002FB7F8946091CD017091CE018091CF01A9
:100570009091D0012FBF08950F931F93CF93DF93D6
:10058000C82FD62F86E0C89FF0011124E656FD4FF4
:1005900011A2878D90A181309105F1F058F0823041
:1005A0009105F1F1039709F440C0DF91CF911F91BC
:1005B0000F9108956623C9F361E070E08C2F0E94CB
:1005C0008C000E94B0026093F2027093F302809359
:1005D000F4029093F502E9CF0E94B0020091F2027A
:1005E0001091F3022091F4023091F502AB01BC01AD
:1005F000401B510B620B730B809104039091050318
:10060000B0E0A0E084179507A607B70748F462E0BA
:1006100070E08C2FDF91CF911F910F910C948C0083
:1006200063E070E0D111C1CFF4CF70E060E0F1CFB2
:10063000862F642F0C941D02862F642F0C94B0011A
:10064000862F0C948701AF92BF92CF92DF92EF92E8
:10065000FF920F931F93CF93DF936C017B018B016C
:10066000040F151FEB015E01AE18BF08C017D107BC
:1006700059F06991D601ED91FC910190F081E02D46
:10068000C6010995892B79F7C501DF91CF911F919B
:100690000F91FF90EF90DF90CF90BF90AF900895B3
:1006A000CF92DF92EF92FF920F931F93CF93DF933E
:1006B000FC01C48121E02093F501C093BE0110929A
:1006C0001902109218028485682B8EE892E00E942D
:1006D0002F01D0911802D13208F092C00E94590225
:1006E0006B017C0180916802811165C082E080937A
:1006F000680281E080936A028FEF80936702109214
:100700008C02D0938B02A5EDB1E0EBE6F2E080E045
:10071000D81385C010928D0280918D02CC0FC82B0A
:10072000C0938D0280916902813009F07CC01092E3
:1007300069020E9459026B017C0180918D028093B5
:10074000BB0080911B0290911C02A0911D02B091F0
:100750001E02892B8A2B8B2B99F00E945902009143
:100760001B0210911C0220911D0230911E026C1977
:100770007D098E099F090617170728073907E0F139
:100780008091BC0083FDD9CF85EC8093BC000E9492
:1007900059026B017C0180916802823009F445C0E6
:1007A000809167028F3F61F180916702803241F151
:1007B0008091670225C080911B0290911C02A0913C
:1007C0001D02B0911E02892B8A2B8B2B09F48ACF34
:1007D0000E94590200911B0210911C0220911D02DF
:1007E00030911E026C197D098E099F0906171707A3
:1007F0002807390708F076CF80911A020E94FC0181
:1008000010921902109218021092F501DF91CF9107
:100810001F910F91FF90EF90DF90CF9008959D91E1
:1008200091938F5F75CF85EEB0CF80911B02909131
:100830001C02A0911D02B0911E02892B8A2B8B2BCA
:1008400009F4A9CF0E94590200911B0210911C02C9
:1008500020911D0230911E026C197D098E099F099D
:10086000061717072807390708F095CFC5CF089551
:1008700090E080E00895FC0101900020E9F73197B5
:10088000AF01481B590BBC0189E093E00C94230392
:1008900085ED8093BC0080911B0290911C02A09179
:1008A0001D02B0911E020796A11DB11D23E0B69551
:1008B000A795979587952A95D1F72091BC0024FD9F
:1008C00003C010926802089540911B0250911C02CF
:1008D00060911D0270911E02452B462B472B69F338
:1008E0000097A105B10541F02AE22A95F1F700C071
:1008F0000197A109B109E1CF80911A020C94FC0182
:100900000F931F93CF938C01C62F0E9450036C2F1F
:100910006460C8010E9450036C2F6B7FC8010E9465
:10092000500383EC90E00197F1F7CF911F910F9165
:1009300008950F931F93CF93DF938C01D62FC42F6D
:10094000607F642B0E94800480E1D89FB001112455
:100950006C2BC801DF91CF911F910F910C948004F3
:10096000CF93DF93CDB7DEB728970FB6F894DEBFED
:100970000FBECDBF98E0E8E3F1E0DE0111960190F3
:100980000D929A95E1F790911103961710F46FEF7D
:10099000690F262F30E0220F331F41E050E04C0F4B
:1009A0005D1F240F351FF9016081680F606840E00A
:1009B00089E093E028960FB6F894DEBF0FBECDBF56
:1009C000DF91CF910C94990440E061E089E093E0DD
:1009D0000E9499048BE39FE10197F1F78091120344
:1009E000882321F060E080E00C94B00408950E9418
:1009F000E40460E080E00E94B0048FE691E00E9491
:100A00003B0461E080E00E94B0048BE791E00E942B
:100A10003B041092C6011092C701089541E00E9464
:100A2000990481E090E008951F920F920FB60F9203
:100A300011242F933F934F935F936F937F938F93E3
:100A40009F93AF93BF93EF93FF938091B900887FFB
:100A5000803609F44AC0F0F5883209F4A7C018F5C9
:100A6000803109F49BC0B8F4882309F4F9C08830B8
:100A700009F494C0FF91EF91BF91AF919F918F9135
:100A80007F916F915F914F913F912F910F900FBE8A
:100A90000F901F901895883109F488C0803251F763
:100AA0008093670214C0803409F49DC040F4803301
:100AB000B9F38833F9F68093670285ECB0C08035CE
:100AC00009F485C0883509F496C0883499F60E94E7
:100AD0004804D0CF883909F48CC038F5883729F01C
:100AE00050F4883611F0803729F683E0809368024D
:100AF0001092660257C0883809F47BC0803919F01B
:100B0000803809F0B7CF80916602803208F071C05A
:100B1000E091660281E08E0F809366028091BB00B7
:100B2000F0E0EA5BFD4F80833DC0803B39F0E0F4AC
:100B3000803A09F479C0883A09F09CCF84E0809328
:100B400068021092430210924202E0914002F0913A
:100B5000410209958091420281110FC081E080938A
:100B600042021092200209C0803C09F4A6CF883CC2
:100B700009F4A3CF883B09F07DCFE091430281E0E7
:100B80008E0F80934302F0E0E05EFD4F8081809302
:100B9000BB00909143028091420229C080918D0256
:100BA0008093BB0085EC8093BC0064CF90918C0255
:100BB00080918B02981758F5E0918C0281E08E0F9E
:100BC00080938C02F0E0E559FD4F8081E9CFE09100
:100BD0008C0281E08E0F80938C028091BB00F0E04C
:100BE000E559FD4F808390918C0280918B0298177C
:100BF000C8F285E8D8CFE0918C0281E08E0F809317
:100C00008C028091BB00F0E0E559FD4F808380911C
:100C10006A0281115CCF81E08093690284EA80934B
:100C2000BC001092680226CF85EC8093BC00109225
:100C3000680280916602803230F4E0916602F0E052
:100C4000EA5BFD4F10826091660270E0E091440221
:100C5000F091450286E492E00995109266020ACF6F
:100C60001092670234CF1F920F920FB60F92112489
:100C70002F933F938F939F93AF93BF938091CD0119
:100C80009091CE01A091CF01B091D0013091CC01D3
:100C900023E0230F2D3758F50196A11DB11D209398
:100CA000CC018093CD019093CE01A093CF01B0935E
:100CB000D0018091D1019091D201A091D301B09146
:100CC000D4010196A11DB11D8093D1019093D20151
:100CD000A093D301B093D401BF91AF919F918F9115
:100CE0003F912F910F900FBE0F901F90189526E8FF
:100CF000230F0296A11DB11DD2CF10929102109226
:100D0000900288EE93E0A0E0B0E08093920290938E
:100D10009302A0939402B09395028BE491E0909398
:100D20008F0280938E0210920C0310920B0387E6C1
:100D300091E090930A03809309031092120387E2D3
:100D400080930D0384E18093130384E08093140364
:100D50001092150310929C021092A00210929F0212
:100D60001092A1028DE591E090939B0280939A02EC
:100D7000E6EBF2E01082148213821582369682E04E
:100D8000E23FF807B9F784E291E09093FD02809387
:100D9000FC0280E291E09093FF028093FE0284E0E7
:100DA000809300038093010388E291E09093FB021B
:100DB0008093FA028AE090E0909303038093020309
:100DC00084EF91E09093050380930403109208034D
:100DD000109207031092F6021092F7021092F80296
:100DE0001092F902109206030895CF93DF93CDB7C6
:100DF000DEB7A1970FB6F894DEBF0FBECDBF7894D3
:100E000084B5826084BD84B5816084BD85B582600F
:100E100085BD85B5816085BD80916E0081608093C0
:100E20006E00109281008091810082608093810029
:100E30008091810081608093810080918000816039
:100E4000809380008091B10084608093B100809194
:100E5000B00081608093B00080917A0084608093BC
:100E60007A0080917A00826080937A0080917A0083
:100E7000816080937A0080917A00806880937A0004
:100E80001092C100109217021092160210921902CD
:100E9000109218020E94DE0186ED90E090934102CC
:100EA0008093400287ED90E0909345028093440246
:100EB00010920E0380911403823018F098E0909302
:100EC0000E038093110362E370E080E090E00E94E3
:100ED0007E026091150389E093E00E94500368EE62
:100EE00073E080E090E00E947E0260E389E093E09E
:100EF0000E9480040BE416E4C8010197F1F760E357
:100F000089E093E00E948004C8010197F1F760E353
:100F100089E093E00E94800483E592E00197F1F775
:100F200060E289E093E00E94800460910E036062B9
:100F300040E089E093E00E94990484E080930F03ED
:100F400040E06CE089E093E00E9499040E94E40490
:100F500082E08093100340E066E089E093E00E9425
:100F6000990440E062E089E093E00E9499048BE3F9
:100F70009FE10197F1F788E08093150360E089E035
:100F800093E00E94500350E0E52E51E0F52E10E072
:100F900040E0612F606489E093E00E94990467015A
:100FA00028E0C20ED11CF70161917F0189E093E036
:100FB0000E940E05EC14FD04B1F7185F103241F7E2
:100FC0000E94F7040E94B0026093C8017093C901A7
:100FD0008093CA019093CB01412C512C3201439450
:100FE00046E0242EBB24B394B09206030E94B002C4
:100FF0000091F6021091F7022091F8023091F90267
:10100000AB01BC01401B510B620B730B80910203BF
:1010100090910303B0E0A0E084179507A607B707F7
:1010200008F093C110E080910003181760F4E0917C
:10103000FC02F091FD02E10FF11D62E080810E944F
:101040001D021F5FF0CFA12C80910103A81608F0AC
:1010500061C0EA2CF12CE091FE02F091FF02EE0D4E
:10106000FF1D61E080810E941D02E091FE02F0916F
:10107000FF02EE0DFF1D60E080810E94B001D301F0
:10108000C2010A2C04C0880F991FAA1FBB1F0A9413
:10109000D2F74C016C01C094D094312C80910003A4
:1010A000381608F5032D10E0E091FC02F091FD02E6
:1010B000E00FF11F80810E9487010C5F1F4F000F1E
:1010C000111FF801E656FD4F892B41F48081918173
:1010D00088299929918380833394E0CF80819181FD
:1010E0008C219D21F7CFE091FE02F091FF02EE0DE1
:1010F000FF1D61E080810E94B0018091FE0290910D
:10110000FF02E80EF91E60E0F70180810E941D02D7
:10111000A3949ACF9AE9E92E92E0F92E8701F8017B
:10112000878D90A1892B31F4148E2FEF3FEF368FEE
:10113000258F11A20A5F1F4F46ED52E0401751075D
:1011400071F7D12C80910003D81608F052C0C12C41
:101150008D2C912C880C991CC4018E559D4F4C01EF
:1011600020910103C21608F042C0F4016081718130
:101170000C2C02C0769567950A94E2F7D29E9001F6
:1011800011242C0D311DEAE9F2E080E0458D568DE9
:101190002417350709F471C18F5F36968A30B1F78D
:1011A00060FF23C0EAE9F2E090E080E0448D411165
:1011B00017C0E091FA02F091FB02E20FF31F4081A9
:1011C000289EF001299EF00D1124E656FD4F448F14
:1011D000368F258F10A2178E61E00E94BC0205C0D9
:1011E000019636968A30910509F7C394B9CFD39406
:1011F000A9CFD12CF70181A18111D82EF6E0EF0EF5
:10120000F11CE016F106B1F70E94B0026093F602FD
:101210007093F7028093F8029093F9021091C7013E
:10122000DD2009F492C08091BB02882309F48DC0AF
:101230008091B9029091BA02019709F086C000919D
:10124000B602011185C08091C701882309F475C0D9
:10125000C090C801D090C901E090CA01F090CB01C4
:101260000E94B00220E1C20E27E2D21EE11CF11C56
:10127000A7019601261B370B480B590BCA01B90170
:1012800028EE33E040E050E00E943F0A69017A0115
:10129000C114D104E104F10409F4ECC062E080E17E
:1012A0000E94B00460E089E093E00E940E0561E0D6
:1012B00089E093E00E940E0563E080E10E94B004A3
:1012C00062E089E093E00E940E0563E089E093E02C
:1012D0000E940E0563E082E10E94B0043AE0C3166A
:1012E000D104E104F10420F48EE991E00E943B0472
:1012F00019A28E010F5D1F4FC701B6012AE030E031
:1013000040E050E00E943F0A69017A01605DF80107
:1013100062938F01C114D104E104F10469F730979D
:1013200061F001900020E9F73197AF01401B510BAC
:10133000B80189E093E00E94230320E030E0232BF2
:1013400009F452CE0E9400004DCE109206037BCFCE
:101350000E94B0026093C8017093C9018093CA01D2
:101360009093CB01111115C0033239F7B092C70128
:101370000E94E40460E080E00E94B0048BE891E009
:101380000E943B0462E080E00E94B004B092C7017A
:101390005ACF1091C6010A32B1F00334E9F5112396
:1013A00009F456CF8FEF810F8093C60162E00E944F
:1013B000B0048EE991E00E943B0462E08091C60196
:1013C0000E94B00440CF163009F042CF1092C50100
:1013D00060E471E08FEB91E00E94670A892B99F439
:1013E0000E94E40461E080E00E94B00480EA91E0A1
:1013F0000E943B0460ED77E080E090E00E947E0276
:101400000E94F70420CF0E94E40461E080E00E9483
:10141000B0048DEA91E0ECCF163008F019CF802FA0
:10142000002E000C990BC0970A9708F011CFE12FFE
:10143000F0E0E154FE4F008362E0812F0E94B0048F
:1014400041E0602F89E093E00E94990464EF71E02D
:1014500080E090E00E947E0262E0812F0E94B00452
:101460008BEB91E00E943B048091C6018F5F8093DB
:10147000C601E9CE0E94F70460CF6170AECEA1E252
:101480001A2EAA1BBB1BFD010DC0AA1FBB1FEE1FFE
:10149000FF1FA217B307E407F50720F0A21BB30B49
:1014A000E40BF50B661F771F881F991F1A9469F7C5
:1014B00060957095809590959B01AC01BD01CF0121
:1014C0000895EE0FFF1F0590F491E02D0994FB01A4
:1014D000DC018D91019080190110D9F3990B0895C9
:0414E000F894FFCFAE
:1014E400000000000000001F000000000000001FBA
:1014F4000C06030103060C1F060C1810180C061F1B
:1015040005040302090807063132334134353642F3
:10151400373839432A302344000040001400540073
:1015240031323334353600000000002F0102013817
:1015340004D800FB00E800D9000000000018031CD8
:10154400032003000000000E052303380437044879
:101554006F7367656C64696E697A002320696C65D2
:1015640020736966726520676972005369667265E3
:101574006E697A6920676972696E697A3A00200037
:10158400536966726520646F6772752100536966DA
:0E15940072652079616E6C697321002A000077
:00000001FF
